:020000040000FA
:0400000059EF02F0C2
:0800080000EF05F0056A046E2B
:10001000FF0E0426D8A005260000D8A01200030E6B
:10002000016EE70E02D8F4D7016AFE0F006E0000E1
:1000300000D000D0E86A015AD8A01200000600D013
:1000400000D0F5D7066A080E106E0034063604504C
:10005000065E02E20626D8900036102EF6D7005033
:100060001200076A066A100E106E01340636073653
:100070000450065E0550075A05E204500626055056
:100080000722D89000360136102EEFD7005012000C
:10009000F86A7F6A7F8E0900F55002E0EE6EFBD7AA
:1000A000120011500C6E15180F6E145053E01052C0
:1000B00054E0105E7F0E03E2102603E24DD01026BE
:1000C00051E213C00AF012C00BF00C8E158E180E00
:1000D0000E6E136A126A116A0BD017500A5C165022
:1000E0000B5811E30B6E0C6A17500A5E0BD004E23A
:1000F00015500C5CF2E007E317500A5E16500B5ADD
:1001000015500C5AD8801336123611360A360B3673
:100110000C360E2EECD711BE07D010521DE00F3258
:1001200010060E2A0F36E3D718AC21D007E217507D
:100130000A5E16500B5A15500C5A19E3133E17D08D
:10014000123E15D0113E13D0113212321332103E2E
:100150000ED008D0188607D01884106A116A126A67
:10016000136A07D0188210681168126813680FAEFE
:10017000119E135012000D6A000E146210647DD09F
:10018000115015180B6E145010267F0E04E3105EEC
:10019000D8B06CD004D0105ED8A4D8A06DD0102AEE
:1001A000118E158E11C00EF012C00CF013C00FF09E
:1001B00013501702F4CF0AF012501602F4CF13F0C6
:1001C000F3CF0DF01702F3500A26F4500D22000E63
:1001D00013220F501602F3500A26F4500D22000E7F
:1001E000132211501702F3500D26F4501322115010
:1001F0001602126A000E1222F3501326F450122235
:100200000F501502F3500D26F4501322116A000E00
:10021000122211220C501502F3501326F450122210
:10022000000E11220E501502F3501226F450112226
:1002300011BE06D00D3613361236113610061CE0EC
:10024000105214E018BC0DAE0ED0D880800E0D6494
:100250001330000E13221222112205E31132123242
:100260001332104A03D00BAE119E0FD018821068C3
:1002700011681268136807D018840B9E000E106E68
:10028000116E126E136E0B3611321350120011C024
:100290000FF07F0E105C0E6E2EE3118E106A1708A1
:1002A0000E6E0BE2080E0E2628E311C010F012C0ED
:1002B00011F013C012F0136A0AD0080E0E5E06E3A6
:1002C00012C013F011C012F0116AF7D70E260E52A9
:1002D00007E0D89010321132123213320E2EF9D7B5
:1002E00010BE0BD00FAE16D0D880000E135612568B
:1002F000115610560FD0000E04D01882000E0FAE0B
:10030000FF0E106E116E126E136E109E18B20FAEAD
:1003100001D0108E13501200126A136A10C00EF032
:10032000135011C013F0116E9E0E106E0F6A11AEB5
:1003300007D0D880000E0E561356125611560F8E47
:10034000030E0F12116617D0080E105E12C011F0C6
:1003500013C012F00EC013F00E6A0F06030E0F1436
:10036000F1E1115208E1106A17D0D8900E36133619
:1003700012361136100611AEF8D718AC0BD00E3469
:1003800009E3000E13221222112204E31132123269
:100390001332102A0FAE119E135012005772697457
:1003A000696E6720000020696E206368616E6E656B
:1003B0006C20000057726F74652064656661756C0F
:1003C000742076616C7565005265636F7665726541
:1003D000642076616C7565733A206368616E6E6542
:1003E0006C2000002056616C75653A005265636FA1
:1003F0007665726564206761696E733A206368612F
:100400006E6E656C20005265616479202D206E6FE0
:1004100064652000205243562000534352495454EF
:10042000555241204E4F444F205254553A004E6F82
:10043000646F2073656C657A696F6E61746F00001C
:100440004654433136204669727374206368616E86
:100450006E656C3A2030206E756D626572206F6635
:10046000206368616E6E656C733A203800004654F4
:10047000433136206669727374206368616E6E65FD
:100480006C3A2000206E756D626572206F66206385
:1004900068616E6E656C733A200020646120000014
:1004A000206120004643543600006761696E3A209F
:1004B0000000186A188C7F6A7F8E4CEF05F0948ECE
:1004C0008B8C949CAB6A19C0AFFF240EAC6EAB88CA
:1004D000AB8E1200ABA202D0AB98AB8812009EA8E4
:1004E000FED7AD6E1200FBD7938E8A8C939CA66AC2
:1004F00019C07BFF240EBA6EA688A68E1200A4A88F
:10050000FED7796E1200FBD700EE4EF0EF5203E0FB
:10051000EE50F5DFFBD71200195204E0E5CFEEFFF5
:100520001906FAD7120010EE1CF03D6A1AC000F04E
:100530001BC004F022EC00F006C03EF00A0E3E5C48
:1005400002E3070E3E26300E3E24E46E1AC000F091
:100550001BC004F022EC00F01A6E3D2A1A52E6E1AC
:100560003DC019F0D9DFEE6A120010EE1DF03E6AB0
:100570001BC001F01AC000F0056A1CC004F031EC89
:1005800000F006C03FF00A0E3F5C02E3070E3F2674
:10059000300E3F24E46E1BC001F01AC000F0056A63
:1005A0001CC004F031EC00F01A6E01C01BF03E2AB2
:1005B0001B501A10DDE13EC019F0AEDFEE6A1200EA
:1005C0001F801B501E5C02E21EC01BF01B50E92660
:1005D000000EEA22ED6A1B5225E0195209E11FA024
:1005E00002D0300E1D6E1DC0EDFF1CC01DF017D0D7
:1005F00019C000F01AC004F022EC00F006C020F090
:100600000A0E205C02E3070E2026300E2024ED6E39
:1006100019C000F01AC004F022EC00F0196E1B069D
:100620001F90D9D7120000EE42F041C01AF00A0E16
:100630001B6E79D700EE44F043C01BF042C01AF0A5
:100640000A0E1C6E92D700EE24F0100E1E6E21C012
:1006500019F0100E1A6E22C01BF023C01CF023C02C
:100660001DF0AED79D9A1AC046F119C045F101019F
:10067000426B436B0193019500012CDF9F8A1BA005
:1006800002D09D8AF28E12009D9A1990010142516A
:10069000435D0001D8A419809D8A12001990ABB265
:1006A00006D0D896010101A5D8860001D8A61980E8
:1006B00012000101019311EE02F04351E126000EF8
:1006C000E222E7CF19F0432B400E435D000102E325
:1006D0000101436B000112009D9AEBDF19C01DF070
:1006E0009D8A1200F2CF1BF0F29E7F6A7F8073CF4B
:1006F0001CF0800E7F6E744A752A1BBEF28E1200AB
:10070000F2CF1BF0F29E7F6A7F84550E7E6EAA0E9A
:100710007E6E7F827FB2FED7800E7F6E744A752A0E
:100720001BBEF28E1200DEDF1CC020F0DBDF1CC01F
:1007300021F012001DC073FFE3DF1EC073FFE0D77E
:1007400012001AC0DAFF19C0D9FF010E1C6E1B502F
:1007500004E0D8901C36E82EFCD7DF501C141E6E27
:100760001E5203E0010E1D6E01D01D6A1200070E1D
:10077000236E1A6A220E196E23C01BF0E2DF010EEF
:100780001D5C03E18B8A949A02D08B9A949A640E32
:1007900014EC00F08B869496010E06EC00F08B961C
:1007A0009496640E14EC00F0235202E02306E1D785
:1007B0001200D8909135A36FA46BA43711EEDBF033
:1007C000A351E126A451E222E6CFA7F0E6CFA8F09C
:1007D000A8C011F0A7C010F08CEC01F013C0A2F07B
:1007E00012C0A1F011C0A0F010C09FF0176A166AE5
:1007F0007A0E156E880E146EA2C013F0A1C012F00E
:10080000A0C011F09FC010F051EC00F013C09AF09E
:1008100012C099F011C098F010C097F091510A0DD4
:10082000F3CF74FFF4CF75FF93C01EF092C01DF09C
:1008300081DF00EE4EF0030EF76E9C0EF66E48EC74
:1008400000F0EF6A61DEA46B4E0EA36F93C043F01D
:1008500092C042F0EFDEA66B440EA56FA4C0EAFF83
:10086000A3C0E9FFA6C0E2FFA5C0E1FFE65002E099
:10087000EE6EFCD7EF6A48DE00EE4EF0030EF76E28
:10088000A60EF66E48EC00F0EF6A3EDEA46B4E0E4C
:10089000A36F91C041F0C7DEA66B420EA56FA4C046
:1008A000EAFFA3C0E9FFA6C0E2FFA5C0E1FFE65052
:1008B00002E0EE6EFCD7EF6A27DE0D0E24DE0A0E94
:1008C00022DE92C010F093C011F08CEC01F09AC0BF
:1008D00017F099C016F098C015F097C014F0BBEC53
:1008E00000F013C09EF012C09DF011C09CF010C02B
:1008F0009BF09EC013F09DC012F09CC011F09BC0F5
:1009000010F047EC01F012C093F0926F93C096F094
:100910000F0E961792C095F0915302E1946B29D077
:10092000010E915D03E1080E946F23D0020E915DDC
:1009300003E1100E946F1DD0030E915D03E1180EBC
:10094000946F17D0040E915D03E1200E946F11D0C7
:10095000050E915D03E1280E946F0BD0060E915D9C
:1009600003E1300E946F05D0070E915D02E1380E61
:10097000946F8B9494940A0E06EC00F094C022F0CD
:10098000F6DE640E14EC00F096C022F0F0DE640E89
:1009900014EC00F095C022F0EADE640E14EC00F0D6
:1009A000010E06EC00F08B849494010E06EC00F02E
:1009B0008B9094908B8094908B929492010E06EC85
:1009C00000F08B8294920A0E06EF00F0898E929EC0
:1009D000196A01014A051A6E000119501A5C0DE3EB
:1009E00011EE4BF01950E126000EE222E75073ECB5
:1009F00002F0192A010E195CEFE2899E929E120004
:100A0000FACFA9F00001EACF48F1E9CF47F101019F
:100A1000018501A301950001ABB236D0AECF44F100
:100A2000D896010101B5D88600012DE401010181AC
:100A300046514511000107E001D805D046C1FAFF33
:100A400001014551F96E0001D896010101A1D88636
:100A5000000119E401EE02F001014251E926000E05
:100A6000EA2244C1EFFF422B400E425D000102E347
:100A70000101426B010101934251435D000102E11A
:100A800001010183000101D09D9A48C1EAFF47C1DD
:100A9000E9FFA9C0FAFF1100D08EFF6B0101006BC6
:100AA0000195026B700ED36EC00E9B6E070E0F0188
:100AB0005B6F929E899E929E756ADC0E746E000139
:100AC00011DE1CC049F19494949094929496949A57
:100AD0008B8094908B8294928B8494941A6ACF0E1C
:100AE000196E5FEC02F01A6A220E196E74EC02F0B5
:100AF000070E1A6E400E196E010E1B6E32EC03F0DB
:100B0000640E06EC00F0756AC80E746EEBDD1C28EE
:100B1000D8A496D0916B936B926B4BDE010E916FC4
:100B2000936B926B46DE020E916F936B926B41DE7C
:100B3000030E916F936B926B3CDE040E916F936B7F
:100B4000926B37DE050E916F936B926B32DE060E61
:100B5000916F936B926B2DDE070E916F936B926B7F
:100B600028DE0C0E0101DC6FDA0EDB6F0C0EDE6F7F
:100B7000DA0EDD6F0C0EE06FDA0EDF6F0C0EE26F37
:100B8000DA0EE16F0C0EE46FDA0EE36F0C0EE66F17
:100B9000DA0EE56F0C0EE86FDA0EE76F0C0EEA6FF7
:100BA000DA0EE96FCA6B080E0101CA5D000125E289
:100BB0000101CA510A0DF3CFABF0F4CFACF0640ED3
:100BC0000001AB25746E000EAC21756ED89001014A
:100BD000CA350001AD6FAE6BAE3711EEDBF0AD5133
:100BE000E126AE51E222E6CF1DF0E6CF1EF09AECF0
:100BF00003F00101CA2B0001D6D7756AC80E746EC6
:100C0000736A80EC03F000EE4EF0030EF76EB40E44
:100C1000F66E48EC00F0EF6A84EC02F00D0E83EC07
:100C200002F00A0E83EC02F0640E0101496F756A4E
:100C3000DC0E746E640E736E000180EC03F009D15B
:100C40000101CA6B080E0101CA5D0001D8B06AD06B
:100C50000101CA510A0DF3CF74FFF4CF75FF0001F3
:100C600093EC03F021C0F0F120C0EFF1CAC191F084
:100C7000F0C193F0EFC192F0D9EC03F000EE4EF02A
:100C8000030EF76EC80EF66E48EC00F0EF6A84ECC7
:100C900002F0AC6B4E0EAB6FCAC141F013EC03F027
:100CA000AE6B420EAD6FACC0EAFFABC0E9FFAEC0A9
:100CB000E2FFADC0E1FFE65002E0EE6EFCD7EF6A66
:100CC00084EC02F000EE4EF0030EF76EE40EF66ECA
:100CD00048EC00F0EF6A84EC02F0AC6B4E0EAB6FA8
:100CE000F0C143F0EFC142F01AEC03F0AE6B440EDA
:100CF000AD6FACC0EAFFABC0E9FFAEC0E2FFADC074
:100D0000E1FFE65002E0EE6EFCD7EF6A84EC02F001
:100D10000D0E83EC02F00A0E83EC02F00101CA2BE7
:100D2000000190D70101CA6B080E0101CA5D0001E4
:100D3000D8B08FD00101CA510A0DF3CFABF0F4CF78
:100D4000ACF0640E0001AB25746E000EAC21756E24
:100D500093EC03F021C0F0F120C0EFF1D890010135
:100D6000CA350001AD6FAE6BAE37010EB06FDB0E52
:100D7000AF6FAD51AF27AE51B0230101CA510A0D7B
:100D8000F3CFB1F0F4CFB2F0640E0001B125746E70
:100D9000000EB221756E93EC03F0B0C0EAFFAFC055
:100DA000E9FF20C0EEFF21C0EEFF00EE4EF0030E83
:100DB000F76EEC0EF66E48EC00F0EF6A84EC02F091
:100DC000AC6B4E0EAB6FCAC141F013EC03F0AE6BCF
:100DD000420EAD6FACC0EAFFABC0E9FFAEC0E2FFB0
:100DE000ADC0E1FFE65002E0EE6EFCD7EF6A84ECA6
:100DF00002F000EE4EF0030EF76EE40EF66E48ECD5
:100E000000F0EF6A84EC02F0AC6B4E0EAB6FF0C1F9
:100E100043F0EFC142F01AEC03F0AE6B440EAD6F3D
:100E2000ACC0EAFFABC0E9FFAEC0E2FFADC0E1FF7E
:100E3000E65002E0EE6EFCD7EF6A84EC02F00D0E95
:100E400083EC02F00A0E83EC02F00101CA2B0001D0
:100E50006BD7756ADC0E746E72EC03F01CC049F13E
:100E6000320E06EC00F000EE4EF0040EF76E060EA9
:100E7000F66E48EC00F0EF6A84EC02F0AC6B4E0EBC
:100E8000AB6F49C141F013EC03F0AE6B420EAD6F96
:100E9000ACC0EAFFABC0E9FFAEC0E2FFADC0E1FF0E
:100EA000E65002E0EE6EFCD7EF6A84EC02F00D0E25
:100EB00083EC02F00A0E83EC02F001014A6B010E92
:100EC0000001EB6F8A0EEA6FEBC0EAFFEAC0E9FFB0
:100ED000EE6AEF6A04000A0E06EC00F04EEC03F036
:100EE00019A008D0070E1A6E400E196E010E1B6E67
:100EF00032EC03F044EC03F019A03FD06CEC03F0AB
:100F00001DC0C9F101EE4BF001014A51E926000E66
:100F1000EA22C9C1EFFF010E0001EB6F8A0EEA6FF2
:100F2000010EED6F8A0EEC6F300E236EC9C121F0F9
:100F3000020E226E23EC03F0EF6B240EEE6FEBC07B
:100F4000EAFFEAC0E9FFEDC0E2FFECC0E1FFE650D6
:100F500002E0EE6EFCD7EFC0E2FFEEC0E1FFE6502C
:100F600002E0EE6EFCD7EF6A01014A2B030E016E20
:100F7000E80E15EC00F00001BDD701014A53000155
:100F8000D8B420EF0CF00101F36B4A050001AB6F00
:100F90000101F3510001AB5DD8A04AD0AD6B4E0EFC
:100FA000AC6FF3C141F013EC03F0AF6B420EAE6FC8
:100FB000ADC0EAFFACC0E9FFAFC0E2FFAEC0E1FFE9
:100FC000E65002E0EE6EFCD7EF6A84EC02F02D0EE4
:100FD00083EC02F0AD6B4E0EAC6F11EE4BF00101E5
:100FE000F351E126000EE222E7CF41F0000113ECBD
:100FF00003F0B26B420EB16FADC0EAFFACC0E9FFC7
:10100000B2C0E2FFB1C0E1FFE65002E0EE6EFCD7F5
:10101000EF6A84EC02F00D0E83EC02F00A0E83EC12
:1010200002F00101F32B010EF35D0001D8B0B0D73F
:101030000D0E83EC02F00A0E83EC02F000EE4EF08F
:1010400011EE8AF0E65002E0EE6EFCD7EF6A84EC17
:1010500002F000EE4EF0040EF76E140EF66E48EC41
:1010600000F0EF6A84EC02F0AC6B4E0EAB6F4AC13D
:1010700041F013EC03F0AE6B420EAD6FACC0EAFF73
:10108000ABC0E9FFAEC0E2FFADC0E1FFE65002E059
:10109000EE6EFCD7EF6A84EC02F00D0E83EC02F0EA
:1010A0000A0E83EC02F0060E01014C5D00013AE1EC
:1010B000C70E01014E5D000135E300EE4EF0040E57
:1010C000F76E1A0EF66E48EC00F0EF6A84EC02F050
:1010D000AC6B4E0EAB6F50C141F013EC03F0AE6B36
:1010E000420EAD6FACC0EAFFABC0E9FFAEC0E2FF9D
:1010F000ADC0E1FFE65002E0EE6EFCD7EF6A84EC93
:1011000002F00D0E83EC02F00A0E83EC02F0756A19
:10111000DC0E746E50C173FF80EC03F0E6EC04F05B
:1011200050C149F101014B51495D0001D8A412EFB2
:101130000CF000EE4EF0040EF76E2E0EF66E48EC3C
:1011400000F0EF6A84EC02F00D0E83EC02F00A0E60
:1011500083EC02F0100E01014C5D000107E0060E69
:1011600001014C5D0001D8A404EF0CF0100E010148
:101170004C5D0001D8A4E9D1080E0101505D0001C9
:10118000D8A47FD000EE4EF0040EF76E400EF66E3F
:1011900048EC00F0EF6A84EC02F00D0E83EC02F0F4
:1011A0000A0E83EC02F00101CA6B080E0101CA5D50
:1011B0000001D8B063D0D8900101CA350001AD6FED
:1011C000AE6BAE37010EB06FCB0EAF6FAD51AF2728
:1011D000AE51B0230101CA51020DF3CFB1F0F4CFEB
:1011E000B2F011EE4BF00001B151E126B251E22212
:1011F000070EE126000EE222E7CFB9F0BD6BBC6B13
:10120000B951BB6FBA6B0101CA51020DF3CFBEF0E9
:10121000F4CFBFF011EE4BF00001BE51E126BF51FB
:10122000E222080EE126000EE222E7CFC6F0C65108
:10123000BA25AB6F000EBB21AC6FB0C0EAFFAFC0E8
:10124000E9FFABC0EEFFACC0EEFFD8900101CA359C
:101250000001AB6FAC6BAC3711EECBF0AB51E126BC
:10126000AC51E222E6CF92F0E6CF93F0CAC191F002
:10127000D9EC03F00101CA2B000197D7E6EC04F08A
:1012800064D100EE4EF0040EF76E6E0EF66E48EC72
:1012900000F0EF6A84EC02F0AC6B4E0EAB6F54C101
:1012A00041F013EC03F0AE6B420EAD6FACC0EAFF41
:1012B000ABC0E9FFAEC0E2FFADC0E1FFE65002E027
:1012C000EE6EFCD7EF6A84EC02F000EE4EF0040EF6
:1012D000F76E840EF66E48EC00F0EF6A84EC02F0D4
:1012E000AC6B4E0EAB6F56C141F013EC03F0AE6B1E
:1012F000420EAD6FACC0EAFFABC0E9FFAEC0E2FF8B
:10130000ADC0E1FFE65002E0EE6EFCD7EF6A84EC80
:1013100002F00D0E83EC02F00A0E83EC02F04EC1D7
:10132000F1F101014E5150250001AB6FAC6BAC37B0
:10133000AB050101F26FF36BF1C1CAF1F2C1ABF081
:101340000101CA510001AB5DD8A067D0D89001015E
:10135000CA350001AE6FAF6BAF37010EB16FCB0E68
:10136000B06FAE51B027AF51B1230101F351020D5F
:10137000F3CFB2F0F4CFB3F011EE4BF00001B25165
:10138000E126B351E222070EE126000EE222E7CF6A
:10139000BAF0BE6BBD6BBA51BC6FBB6B0101F351B0
:1013A000020DF3CFBFF0F4CFC0F011EE4BF000010F
:1013B000BF51E126C051E222080EE126000EE222D2
:1013C000E7CFC7F0C751BB25AC6F000EBC21AD6F96
:1013D000B1C0EAFFB0C0E9FFACC0EEFFADC0EEFFA8
:1013E000D8900101CA350001AC6FAD6BAD3711EE7D
:1013F000CBF0AC51E126AD51E222E6CF92F0E6CF40
:1014000093F0CAC191F0D9EC03F00101F32BCA2B80
:10141000010ECA5D0001D8B093D700EE4EF0040E65
:10142000F76E6E0EF66E48EC00F0EF6A84EC02F098
:10143000AC6B4E0EAB6F54C141F013EC03F0AE6BCE
:10144000420EAD6FACC0EAFFABC0E9FFAEC0E2FF39
:10145000ADC0E1FFE65002E0EE6EFCD7EF6A84EC2F
:1014600002F000EE4EF0040EF76E840EF66E48ECBD
:1014700000F0EF6A84EC02F0AC6B4E0EAB6F56C11D
:1014800041F013EC03F0AE6B420EAD6FACC0EAFF5F
:10149000ABC0E9FFAEC0E2FFADC0E1FFE65002E045
:1014A000EE6EFCD7EF6A84EC02F000EE4EF0040E14
:1014B000F76E9A0EF66E48EC00F0EF6A84EC02F0DC
:1014C000AC6B4E0EAB6FF1C141F013EC03F0AE6BA1
:1014D000420EAD6FACC0EAFFABC0E9FFAEC0E2FFA9
:1014E000ADC0E1FFE65002E0EE6EFCD7EF6A84EC9F
:1014F00002F000EE4EF0040EF76EA00EF66E48EC11
:1015000000F0EF6A84EC02F0AC6B4E0EAB6FF2C1F0
:1015100041F013EC03F0AE6B420EAD6FACC0EAFFCE
:10152000ABC0E9FFAEC0E2FFADC0E1FFE65002E0B4
:10153000EE6EFCD7EF6A84EC02F00D0E83EC02F045
:101540000A0E83EC02F0E6EC04F0060E01014C5D9D
:101550000001D8A44BD100EE4EF0040EF76EA40E9D
:10156000F66E48EC00F0EF6A84EC02F00D0E83ECAE
:1015700002F00A0E83EC02F04EC1CAF10A0E01011C
:10158000CA5D0001D8B084D0D8900101CA350001ED
:10159000AD6FAE6BAE3701EECBF0AD51E926AE517B
:1015A000EA22B46BB36B01014F510001B26FB16B12
:1015B000010150510001B125AB6F000EB221AC6F9B
:1015C000ABC0EEFFACC0EEFFD8900101CA35000100
:1015D000AB6FAC6BAC3711EECBF0AB51E126AC513D
:1015E000E222E6CF92F0E6CF93F0CAC191F0D9ECB7
:1015F00003F0200E83EC02F0AC6B4E0EAB6FCAC151
:1016000041F013EC03F0AE6B420EAD6FACC0EAFFDD
:10161000ABC0E9FFAEC0E2FFADC0E1FFE65002E0C3
:10162000EE6EFCD7EF6A84EC02F0200E83EC02F041
:10163000AC6B4E0EAB6FD8900101CA350001AD6F97
:10164000AE6BAE3711EECBF0AD51E126AE51E222DA
:10165000E6CF42F0E6CF43F01AEC03F0B46B440E51
:10166000B36FACC0EAFFABC0E9FFB4C0E2FFB3C0E8
:10167000E1FFE65002E0EE6EFCD7EF6A84EC02F088
:101680000D0E83EC02F00A0E83EC02F0E6EC04F09F
:101690000B0E0101CA5D0001D8A0A8D0960E010171
:1016A000CA5D0001D8B0A2D00A0E0101CA5FD8906D
:1016B000CA350001AD6FAE6BAE3701EEDBF0AD5158
:1016C000E926AE51EA22B46BB36B01014F51000120
:1016D000B26FB16B010150510001B125AB6F000E2B
:1016E000B221AC6FABC0EEFFACC0EEFFCAC191F04F
:1016F000030E936FE80E926FD9EC03F000EE4EF0FC
:10170000040EF76EAA0EF66E48EC00F0EF6A84EC59
:1017100002F0AC6B4E0EAB6FD8900101CA350001E0
:10172000AD6FAE6BAE3711EEDBF0AD51E126AE51D1
:10173000E222E6CF42F0E6CF43F01AEC03F0B46BBE
:10174000440EB36FACC0EAFFABC0E9FFB4C0E2FF28
:10175000B3C0E1FFE65002E0EE6EFCD7EF6A84EC26
:1017600002F0200E83EC02F0AC6B4E0EAB6FCAC1E0
:1017700041F013EC03F0AE6B420EAD6FACC0EAFF6C
:10178000ABC0E9FFAEC0E2FFADC0E1FFE65002E052
:10179000EE6EFCD7EF6A84EC02F00D0E83EC02F0E3
:1017A0000A0E83EC02F0E6EC04F00101CA510A0DC6
:1017B000F3CFABF0F4CFACF0640E0001AB25746E48
:1017C000000EAC21756ED8900101CA350001AD6FD5
:1017D000AE6BAE3711EEDBF0AD51E126AE51E22239
:1017E000E6CF1DF0E6CF1EF09AEC03F001014A6B44
:1017F000010E0001EB6F8A0EEA6FEBC0EAFFEAC050
:10180000E9FFEE6AEF6A0DD001014A6B010E00019B
:10181000EB6F8A0EEA6FEBC0EAFFEAC0E9FFEE6AFF
:10182000EF6A0DD001014A6B010E0001EB6F8A0EC9
:10183000EA6FEBC0EAFFEAC0E9FFEE6AEF6A0DD09B
:1018400001014A6B010E0001EB6F8A0EEA6FEBC0DB
:10185000EAFFEAC0E9FFEE6AEF6A6AEF07F0030009
:02186000FED7B1
:020000040030CA
:0400000015087B1C48
:020005008990E0
:060008000FC00FE00F40E5
:00000001FF
